:100000000C9434000C9451000C9451000C94510049
:100010000C9451000C9451000C9451000C949601D6
:100020000C9451000C9451000C9451000C9451000C
:100030000C9451000C9451000C9451000C945100FC
:100040000C9451000C9451000C9472010C945100CA
:100050000C9451000C9451000C9451000C945100DC
:100060000C9451000C94510011241FBECFEFD8E026
:10007000DEBFCDBF11E0A0E0B1E0E6EAFEE002C0E5
:1000800005900D92A033B107D9F721E0A0E3B1E0CC
:1000900001C01D92A53AB207E1F70E940D040C942D
:1000A00051070C940000CF92DF92EF92FF920F93D2
:1000B0001F93CF93DF93CDB7DEB7E2970FB6F894D7
:1000C000DEBF0FBECDBF00E010E091E0C92E91E091
:1000D000D92ECE0101967C01F801EE0FFF1FEE0F25
:1000E000FF1FEF5CFE4F80819181A281B381BF939E
:1000F000AF939F938F931F930F93DF92CF92FF92B3
:10010000EF920E94670488E091E00E94940280E1EF
:1001100091E00E949402C7010E94940283E191E061
:100120000E9494020F5F1F4F0FB6F894DEBF0FBE00
:10013000CDBF0330110581F6E2960FB6F894DEBF0D
:100140000FBECDBFDF91CF911F910F91FF90EF9028
:10015000DF90CF9008950E9475030E9455020C9481
:10016000AD024F925F926F927F928F929F92AF9269
:10017000BF92CF92DF92EF92FF9240903101509068
:10018000320160903301709034018090350190907D
:100190003601A0903701B0903801C0903901D0905D
:1001A0003A01E0903B01F0903C010E94ED01882370
:1001B00011F08130E9F48BE04816510410F480E02E
:1001C00009C08BE088169104D0F38BE0C816D104E7
:1001D000B0F381E0FF90EF90DF90CF90BF90AF90B1
:1001E0009F908F907F906F905F904F900C94F00154
:1001F000FF90EF90DF90CF90BF90AF909F908F9047
:100200007F906F905F904F900895CF93DF930E94FF
:10021000E7010E94A702882309F10E94AA02EC01CB
:1002200068E171E00E945E04892B31F480E00E9455
:10023000EA0188E191E00CC06EE171E0CE010E941C
:100240005E04892B39F481E00E94EA018EE191E09D
:100250000E949402DF91CF910C94A002DF91CF9184
:1002600008950E94B1000C940501CF930E94E7010C
:10027000C82F0E94ED01882311F0C1110DC081E04B
:1002800090E00E9493030E94C5031092000184E253
:1002900091E0CF910C94940280910001C81779F0FD
:1002A000C130E1F481E090E00E9493030E94AD032D
:1002B0008AE291E00E949402C093000102C0C13022
:1002C00069F481E090E00E9493030E94AD038AE20A
:1002D00091E00E94940281E080930001CF91089503
:1002E0000C9435011F920F920FB60F9211242F9389
:1002F0003F934F935F936F937F938F939F93AF93AE
:10030000BF93EF93FF930E946D02FF91EF91BF9116
:10031000AF919F918F917F916F915F914F913F919D
:100320002F910F900FBE0F901F9018951F920F9254
:100330000FB60F9211242F933F934F935F936F93B8
:100340007F938F939F93AF93BF93CF93DF93EF935D
:10035000FF93C0913D01D0E080913D010E94FB02DE
:10036000CC0FDD1FCC0FDD1FCF5CDE4F68837983A0
:100370008A839B8380913D0190E0019663E070E069
:100380000E94280480933D01FF91EF91DF91CF916E
:10039000BF91AF919F918F917F916F915F914F919D
:1003A0003F912F910F900FBE0F901F9018950E94B4
:1003B000AB000E942C020E9431020E9442027894FB
:1003C00081E00C94EA010E9431010C94700180914B
:1003D0003E01089580933E01089580913F01089564
:1003E00080933F010895611104C02FEFFC01208329
:1003F0000895FC0110820895FC01808121E030E025
:1004000001C0220F4A95EAF7611102C0282B02C0F1
:100410002095282320830895FC0160830895FC0122
:10042000808121E030E001C0220F6A95EAF7413077
:1004300011F4282B02C02095282320830895FC0165
:1004400080810895FC01808190E002C09595879598
:100450006A95E2F78170089514BC83E085BD16BCEF
:100460000895E0E8F0E0808182608083A1E8B0E058
:100470008C9188618C938C9183608C93808180684F
:10048000808308951092B000E1EBF0E080818260FB
:100490008083A0E7B0E08C9182608C938CE980939C
:1004A000B30080818760808308951092C5008FEC2F
:1004B0008093C400E0ECF0E0808182608083E2EC15
:1004C000F0E0808186608083E1ECF0E080818861EB
:1004D000808380818068808308958091C600E09148
:1004E0003001AE2FB0E0A05CBE4F8C93EF5F8A303E
:1004F00051F4F0E0E05CFE4F10821092300181E098
:100500008093A4010895E093300108959091C00074
:1005100095FFFCCF8093C60008958091C00087FFAF
:10052000FCCF8091C6000895CF93DF93EC018991B1
:10053000882319F00E948602FACFDF91CF910895A7
:100540001092A401089581E08093A4010895809100
:10055000A401089580E491E0089542E060E08AE219
:1005600090E00E94FC0143E061E08AE290E00E949A
:10057000FC0142E060E084E290E00E94FC0143E084
:1005800061E084E290E00E94FC0144E060E084E2EB
:1005900090E00E94FC0145E061E084E290E00C9470
:1005A000FC0181110CC05A988AE08A95F1F700C0CD
:1005B0005A9A85E38A95F1F700005A980895813098
:1005C00061F42A988AE08A95F1F700C02A9A85E3B7
:1005D0008A95F1F700002A980895823059F42C98F2
:1005E0008AE08A95F1F700C02C9A85E38A95F1F7A5
:1005F00000002C980895CF93C82F0E94D102C111FA
:1006000020C081E492E4AFE0B0E04B9905C00197CF
:10061000A109B109D1F762C060E070E0CB014B9B4A
:1006200056C06F5F7F4F8F4F9F4F693823E172072E
:100630008105910509F44BC025E02A95F1F70000EA
:10064000EECFC130F9F481E492E4AFE0B0E01B9961
:1006500005C00197A109B109D1F740C060E070E081
:10066000CB011B9B34C06F5F7F4F8F4F9F4F69380B
:1006700023E172078105910551F125E02A95F1F7F3
:100680000000EFCFC23021F060E070E0CB011FC06E
:1006900081E492E4AFE0B0E01D9905C00197A109A3
:1006A000B109D1F71BC060E070E0CB011D9B0FC00A
:1006B0006F5F7F4F8F4F9F4F693823E1720781052E
:1006C000910529F025E02A95F1F70000EFCF2AE304
:1006D00030E040E050E00E943C0403C02FEF3FEFC9
:1006E000A901CA01B901CF91089541E060E084E217
:1006F00090E00E94FC0144E060E08AE290E00E9409
:10070000FC0145E060E08AE290E00E94FC0146E0E6
:1007100060E08AE290E00E94FC0147E060E08AE24B
:1007200090E00C94FC01BC0187EE93E0909387006D
:10073000809386006115710529F41092890010924A
:100740008800089580918600909187000E9414048B
:100750007093890060938800089541E064E08BE223
:1007600090E00E940F0240E065E08BE290E00E9482
:100770000F0241E066E08BE290E00E940F0240E051
:1007800067E08BE290E00C940F0241E064E08BE2C2
:1007900090E00E940F0240E065E08BE290E00E9452
:1007A0000F0240E066E08BE290E00E940F0241E021
:1007B00067E08BE290E00C940F0240E064E08BE293
:1007C00090E00E940F0241E065E08BE290E00E9421
:1007D0000F0241E066E08BE290E00E940F0240E0F1
:1007E00067E08BE290E00C940F0240E064E08BE263
:1007F00090E00E940F0240E065E08BE290E00E94F2
:100800000F0240E066E08BE290E00E940F0240E0C1
:1008100067E08BE290E00C940F020E94D7010E94E7
:10082000E3010E945300FBCFAA1BBB1B51E107C091
:10083000AA1FBB1FA617B70710F0A61BB70B881F70
:10084000991F5A95A9F780959095BC01CD010895FF
:1008500097FB072E16F4009407D077FD09D00E946D
:10086000140407FC05D03EF4909581959F4F0895A0
:10087000709561957F4F0895A1E21A2EAA1BBB1BAC
:10088000FD010DC0AA1FBB1FEE1FFF1FA217B3075C
:10089000E407F50720F0A21BB30BE40BF50B661F72
:1008A000771F881F991F1A9469F760957095809536
:1008B00090959B01AC01BD01CF010895FB01DC01C6
:1008C0008D91019080190110D9F3990B0895AEE034
:1008D000B0E0EDE6F4E00C9428070D891E8986E06F
:1008E0008C831A8309838FEF9FE79E838D83AE01EC
:1008F000475E5F4F6F89788DCE0101960E94890413
:10090000EF81F885E00FF11F10822E96E4E00C9441
:100910004407ABE0B0E0EFE8F4E00C941A076C0198
:100920007B018A01FC0117821682838181FFCCC181
:10093000CE0101963C01F6019381F70193FD85916B
:1009400093FF81917F01882309F4BAC1853239F47C
:1009500093FD859193FF81917F01853229F4B60142
:1009600090E00E948006E7CF912C212C312CFFE1F2
:10097000F315D8F08B3279F038F4803279F0833285
:10098000A1F4232D20611DC08D3261F0803369F404
:10099000232D216016C0832D8260382EE32DE46064
:1009A0003E2E2AC0F32DF8601DC037FC2DC020ED6F
:1009B000280F2A3040F08E32B9F436FC81C1232D45
:1009C0002064322E19C036FE06C08AE0989E200DA3
:1009D0001124922E11C0EAE02E9E200D1124222E09
:1009E000F32DF0623F2E08C08C3621F4832D8068F1
:1009F000382E02C0883641F4F70193FD859193FFAC
:100A000081917F018111B3CF982F9F7D95549330B1
:100A100028F40C5F1F4F9FE399830DC0833631F09C
:100A2000833771F0833509F059C021C0F801808106
:100A300089830E5F1F4F88248394912C530113C028
:100A40002801F2E04F0E511CF801A080B18036FE63
:100A500003C0692D70E002C06FEF7FEFC5010E94F7
:100A600075064C018201F32DFF773F2E16C0280139
:100A700022E0420E511CF801A080B18036FE03C076
:100A8000692D70E002C06FEF7FEFC5010E946A061A
:100A90004C01F32DF0683F2E820133FC1BC0822DE8
:100AA00090E088169906B0F4B60180E290E00E94CA
:100AB00080062A94F4CFF50137FC859137FE8191A9
:100AC0005F01B60190E00E94800621102A9421E087
:100AD000821A91088114910471F7E8C0843611F0EC
:100AE000893641F5F80137FE07C060817181828146
:100AF00093810C5F1F4F08C060817181072E000C2D
:100B0000880B990B0E5F1F4FF32DFF763F2E97FF3B
:100B100009C090958095709561957F4F8F4F9F4F3D
:100B2000F0683F2E2AE030E0A3010E94BC06882E28
:100B3000861845C0853731F4232D2F7EB22E2AE04A
:100B400030E025C0932D997FB92E8F36C1F018F46F
:100B5000883579F0B5C0803719F0883721F0B0C0FA
:100B6000E92FE061BE2EB4FE0DC0FB2DF460BF2E58
:100B700009C034FE0AC0292F2660B22E06C028E024
:100B800030E005C020E130E002C020E132E0F801B1
:100B9000B7FE07C060817181828193810C5F1F4F16
:100BA00006C06081718180E090E00E5F1F4FA3015D
:100BB0000E94BC06882E8618FB2DFF773F2E36FE3E
:100BC0000DC0232D2E7FA22E891458F434FE0BC0A5
:100BD00032FC09C0832D8E7EA82E05C0B82CA32C14
:100BE00003C0B82C01C0B92CA4FE0FC0FE01E80D53
:100BF000F11D8081803321F49A2D997EA92E09C0A0
:100C0000A2FE06C0B394B39404C08A2D867809F07E
:100C1000B394A3FC11C0A0FE06C0B21488F4280C43
:100C2000922C9B180EC0B21460F4B60180E290E0E2
:100C30000E948006B394F7CFB21418F42B1802C0A8
:100C4000982C212CA4FE10C0B60180E390E00E94F5
:100C50008006A2FE17C0A1FC03C088E790E002C096
:100C600088E590E0B6010CC08A2D867859F0A1FE87
:100C700002C08BE201C080E2A7FC8DE2B60190E0E9
:100C80000E948006891438F4B60180E390E00E9447
:100C900080069A94F7CF8A94F301E80DF11D8081C4
:100CA000B60190E00E9480068110F5CF222009F461
:100CB00042CEB60180E290E00E9480062A94F6CFF0
:100CC000F6018681978102C08FEF9FEF2B96E2E1BC
:100CD0000C943607FC010590615070400110D8F764
:100CE000809590958E0F9F1F0895FC016150704074
:100CF00001900110D8F7809590958E0F9F1F089551
:100D00000F931F93CF93DF93FB01238121FD03C03A
:100D10008FEF9FEF2CC022FF16C0468157812481A0
:100D200035814217530744F4A081B1819D012F5FA3
:100D30003F4F318320838C93268137812F5F3F4F34
:100D40003783268314C08B01EC01FB010084F185FD
:100D5000E02D0995892BE1F6D80116968D919C918D
:100D60001797019617969C938E931697CE01DF9155
:100D7000CF911F910F910895FA01AA27283051F1C0
:100D8000203181F1E8946F936E7F6E5F7F4F8F4FBC
:100D90009F4FAF4FB1E03ED0B4E03CD0670F781F1B
:100DA000891F9A1FA11D680F791F8A1F911DA11D00
:100DB0006A0F711D811D911DA11D20D009F4689439
:100DC0003F912AE0269F11243019305D3193DEF6E1
:100DD000CF010895462F4770405D4193B3E00FD097
:100DE000C9F7F6CF462F4F70405D4A3318F0495D82
:100DF00031FD4052419302D0A9F7EACFB4E0A69565
:100E00009795879577956795BA95C9F70097610586
:100E1000710508959B01AC010A2E069457954795DC
:100E200037952795BA95C9F7620F731F841F951FD1
:100E3000A01D08952F923F924F925F926F927F92E2
:100E40008F929F92AF92BF92CF92DF92EF92FF92DA
:100E50000F931F93CF93DF93CDB7DEB7CA1BDB0B86
:100E60000FB6F894DEBF0FBECDBF09942A8839882B
:100E700048885F846E847D848C849B84AA84B98432
:100E8000C884DF80EE80FD800C811B81AA81B9813E
:100E9000CE0FD11D0FB6F894DEBF0FBECDBFED0152
:060EA0000895F894FFCF55
:100EA60001256420256C750053656E736F722000F2
:100EB6003A200020636D0A0053544F500A00464101
:100EC60053540A0053746F700A00466173740A0023
:00000001FF
