:100000000C94B1000C94CE000C94CE000C94CE0055
:100010000C94CE000C94CE000C94CE000C94D6021E
:100020000C94CE000C94CE000C94CE000C94CE0018
:100030000C94CE000C94CE000C94CE000C94CE0008
:100040000C94CE000C94CE000C94B2020C94CE0012
:100050000C94CE000C94CE000C94CE000C94CE00E8
:100060000C94CE000C94CE0000407A10F35A00A0FD
:10007000724E18090010A5D4E80000E87648170071
:1000800000E40B54020000CA9A3B000000E1F505B1
:10009000000080969800000040420F000000A086FB
:1000A00001000000102700000000E803000000002D
:1000B0006400000000000A000000000001000000D1
:1000C00000002C76D888DC674F0823DFC1DFAE59EB
:1000D000E1B1B796E5E3E453C63AE651997696E87E
:1000E000E6C28426EB898C9B62ED407C6FFCEFBC02
:1000F0009C9F40F2BAA56FA5F490055A2AF75C932D
:100100006B6CF9676DC11BFCE0E40D47FEF520E662
:10011000B500D0ED902E0300943577050080841E45
:10012000080000204E0A000000C80C333333330FA0
:10013000986E12831141EF8D2114893BE65516CF3D
:10014000FEE6DB18D1844B381BF77C1D901DA4BB49
:10015000E424203284725E228100C9F124ECA1E5FE
:100160003D2711241FBECFEFD8E0DEBFCDBF11E089
:10017000A0E0B1E0ECE4F3E102C005900D92AC32F6
:10018000B107D9F721E0ACE2B1E001C01D92AE3A6F
:10019000B207E1F70E944D050C94A4090C940000ED
:1001A000EF92FF920F931F93CF93DF93CDB7DEB7FC
:1001B000E2970FB6F894DEBF0FBECDBFE12CF12C55
:1001C000F701EE0FFF1FEE0FFF1FE35DFE4F608193
:1001D0007181828193818E010F5F1F4F22E046E083
:1001E0000E941207C8010E94E00380E091E00E9493
:1001F000E0038FEFE81AF80A83E0E816F10401F74C
:10020000E2960FB6F894DEBF0FBECDBFDF91CF915F
:100210001F910F91FF90EF9008950E94C8040E94D3
:10022000A1030C94F9034F925F926F927F928F9289
:100230009F92AF92BF92CF92DF92EF92FF920E9475
:100240003903823021F0863011F0811185C0409051
:100250003E0150903F01609040017090410120E0CC
:1002600030E040E751E4C301B2010E94E9051816ED
:1002700014F080E039C08090420190904301A0903A
:100280004401B090450120E030E040E751E4C50171
:10029000B4010E94E905181664F7C0903A01D090A5
:1002A0003B01E0903C01F0903D0120E030E040E770
:1002B00051E4C701B6010E94E9051816D4F620E002
:1002C00030E040E751E4C301B2010E94A0061816D5
:1002D000CCF420E030E040EA51E4C301B2010E94D6
:1002E000E90518167CF086E0FF90EF90DF90CF9044
:1002F000BF90AF909F908F907F906F905F904F9046
:100300000C943C0320E030E040E751E4C501B40127
:100310000E94A006181654F420E030E040EA51E4B0
:10032000C501B4010E94E9051816ECF620E030E0A2
:1003300040E751E4C701B6010E94A006181654F424
:1003400020E030E040EA51E4C701B6010E94E9052F
:1003500018164CF682E0C8CFFF90EF90DF90CF9058
:10036000BF90AF909F908F907F906F905F904F90D5
:100370000895CF93DF930E9433030E94F3038823F1
:1003800071F10E94F603EC0165E071E00E94320712
:10039000892B31F480E00E94360385E091E019C09A
:1003A0006BE071E0CE010E943207892B31F482E0CC
:1003B0000E9436038BE091E00CC06FE071E0CE014B
:1003C0000E943207892B39F486E00E9436038FE0C1
:1003D00091E00E94E003DF91CF910C94EC03DF9158
:1003E000CF9108958F929F92AF92BF92CF92DF925A
:1003F000EF92FF920E942D03809042019090430162
:10040000A0904401B0904501C0903A01D0903B01CA
:10041000E0903C01F0903D01A7019601C501B401B7
:100420000E947C052DEC3CEC4CEC5DE30E94A006A8
:1004300087FD02C084E00FC0A5019401C701B60189
:100440000E947C052DEC3CEC4CEC5DE30E94A00688
:1004500087FD0BC085E0FF90EF90DF90CF90BF90BD
:10046000AF909F908F900C943003FF90EF90DF90AF
:10047000CF90BF90AF909F908F900895EDE2F1E004
:1004800080819181A281B38180933E0190933F014D
:10049000A0934001B093410184819581A681B781E9
:1004A0008093420190934301A0934401B09345018E
:1004B00080859185A285B38580933A0190933B0115
:1004C000A0933C01B0933D010E9413010E94B90129
:1004D0000C94F2011F93CF93DF930E943303C82F34
:1004E0000E943903D82F0E942D03182FC1110AC072
:1004F00080E090E00E94E60480E00E94000585E133
:1005000091E025C0C63051F486E090E00E94E604F8
:1005100082E00E9400058BE191E019C0C230E1F455
:10052000D1110AC082E090E00E94E604812F0E946F
:10053000000581E291E00BC0D63031F382E090E01B
:100540000E94E60482E00E94000587E291E0DF91CC
:10055000CF911F910C94E003DF91CF911F910895EB
:100560000C946A021F920F920FB60F9211242F93D0
:100570003F934F935F936F937F938F939F93AF932B
:10058000BF93EF93FF930E94B903FF91EF91BF9147
:10059000AF919F918F917F916F915F914F913F911B
:1005A0002F910F900FBE0F901F9018951F920F92D2
:1005B0000FB60F9211242F933F934F935F936F9336
:1005C0007F938F939F93AF93BF93CF93DF93EF93DB
:1005D000FF93C0913901D0E0809139010E94470416
:1005E000CC0FDD1FCC0FDD1FC35DDE4F6883798329
:1005F0008A839B838091390190E0019663E070E0EB
:100600000E94680580933901FF91EF91DF91CF91AE
:10061000BF91AF919F918F917F916F915F914F911A
:100620003F912F910F900FBE0F901F9018950E9431
:100630000D010E9478030E947D030E948E0378942E
:1006400082E00E94360382E00E94360382E00C942E
:1006500030030E943E020C94B0028091460108953E
:100660008093460108958091470108958093470142
:10067000089580914801089580934801089561117B
:1006800004C02FEFFC0120830895FC01108208951F
:10069000FC01808121E030E001C0220F4A95EAF799
:1006A000611102C0282B02C02095282320830895C1
:1006B000FC0160830895FC01808121E030E001C0ED
:1006C000220F6A95EAF7413011F4282B02C02095D9
:1006D000282320830895FC0180810895FC018081F6
:1006E00090E002C0959587956A95E2F7817008952C
:1006F00014BC83E085BD16BC0895E0E8F0E080817D
:1007000082608083A1E8B0E08C9188618C938C91A9
:1007100083608C9380818068808308951092B000FC
:10072000E1EBF0E0808182608083A0E7B0E08C9113
:1007300082608C938CE98093B30080818760808392
:1007400008951092C5008FEC8093C400E0ECF0E0B7
:10075000808182608083E2ECF0E08081866080832B
:10076000E1ECF0E080818861808380818068808313
:1007700008958091C600E0912C01AE2FB0E0A75BF8
:10078000BE4F8C93EF5F8A3051F4F0E0E75BFE4F91
:10079000108210922C0181E08093AD010895E093C6
:1007A0002C0108959091C00095FFFCCF8093C60066
:1007B00008958091C00087FFFCCF8091C600089506
:1007C000CF93DF93EC018991882319F00E94D20323
:1007D000FACFDF91CF9108951092AD01089581E095
:1007E0008093AD0108958091AD01089589E491E071
:1007F000089542E060E08AE290E00E94480343E00E
:1008000061E08AE290E00E94480344E060E08AE20E
:1008100090E00E94480345E061E08AE290E00E9497
:10082000480346E060E08AE290E00E94480347E027
:1008300061E08AE290E00C94480381110CC05A9860
:100840008AE08A95F1F700C05A9A85E38A95F1F714
:1008500000005A980895813061F45C988AE08A9586
:10086000F1F700C05C9A85E38A95F1F700005C9887
:100870000895823059F45E988AE08A95F1F700C0B5
:100880005E9A85E38A95F1F700005E980895CF930C
:10089000C82F0E941D04C11120C081E492E4AFE082
:1008A000B0E04B9905C00197A109B109D1F76AC021
:1008B00060E070E0CB014B9B56C06F5F7F4F8F4F66
:1008C0009F4F693823E172078105910509F44BC0F8
:1008D00025E02A95F1F70000EECFC130F9F481E46C
:1008E00092E4AFE0B0E04D9905C00197A109B109CC
:1008F000D1F748C060E070E0CB014D9B34C06F5F22
:100900007F4F8F4F9F4F693823E172078105910513
:1009100051F125E02A95F1F70000EFCFC23021F028
:1009200060E070E0CB011FC081E492E4AFE0B0E092
:100930004F9905C00197A109B109D1F723C060E023
:1009400070E0CB014F9B0FC06F5F7F4F8F4F9F4F6A
:10095000693823E172078105910529F025E02A9580
:10096000F1F70000EFCF0E94EE0528E23EE74CE0F1
:100970005DE30E94A50620E030E040E05FE30E94D6
:10098000A50604C060E070E080E89FEBCF91089579
:1009900041E060E084E290E00E94480342E060E0D1
:1009A00084E290E00E94480343E060E084E290E04B
:1009B0000E94480344E060E084E290E00E94480323
:1009C00045E060E084E290E00C944803BC0187EECF
:1009D00093E090938700809386006115710529F458
:1009E000109289001092880008958091860090915D
:1009F00087000E94540570938900609388000895D1
:100A00008230B9F018F4882331F00895843029F148
:100A1000853059F1089540E062E085E290E00E945F
:100A20005B0340E063E085E290E00E945B0340E00E
:100A30000DC041E062E085E290E00E945B0340E08F
:100A400063E085E290E00E945B0341E064E085E2C0
:100A500090E00E945B0340E01BC040E062E085E262
:100A600090E00E945B0341E0EBCF41E062E085E271
:100A700090E00E945B0340E063E085E290E00E942A
:100A80005B0340E064E085E290E00E945B0341E0AC
:100A900065E085E290E00C945B030E9417030E94DE
:100AA00029030E94D000FBCFAA1BBB1B51E107C04A
:100AB000AA1FBB1FA617B70710F0A61BB70B881FEE
:100AC000991F5A95A9F780959095BC01CD0108957D
:100AD00097FB072E16F4009407D077FD09D00E94EB
:100AE000540507FC05D03EF4909581959F4F0895DD
:100AF000709561957F4F08955058BB27AA270E9493
:100B000094050C9466060E94580638F00E945F0611
:100B100020F039F49F3F19F426F40C9455060EF496
:100B2000E095E7FB0C944F06E92F0E94770658F3F7
:100B3000BA17620773078407950720F079F4A6F5C2
:100B40000C9499060EF4E0950B2EBA2FA02D0B01F4
:100B5000B90190010C01CA01A0011124FF27591B02
:100B600099F0593F50F4503E68F11A16F040A22F08
:100B7000232F342F4427585FF3CF46953795279579
:100B8000A795F0405395C9F77EF41F16BA0B620B78
:100B9000730B840BBAF09150A1F0FF0FBB1F661FBF
:100BA000771F881FC2F70EC0BA0F621F731F841F02
:100BB00048F4879577956795B795F7959E3F08F028
:100BC000B0CF9395880F08F09927EE0F97958795EA
:100BD00008950E942B0608F481E00895E89409C066
:100BE00097FB3EF490958095709561957F4F8F4F60
:100BF0009F4F9923A9F0F92F96E9BB279395F69576
:100C0000879577956795B795F111F8CFFAF4BB0FF3
:100C100011F460FF1BC06F5F7F4F8F4F9F4F16C057
:100C2000882311F096E911C0772321F09EE8872FE1
:100C3000762F05C0662371F096E8862F70E060E09D
:100C40002AF09A95660F771F881FDAF7880F969516
:100C5000879597F90895990F0008550FAA0BE0E8BA
:100C6000FEEF16161706E807F907C0F0121613066E
:100C7000E407F50798F0621B730B840B950B39F4AE
:100C80000A2661F0232B242B252B21F408950A2614
:100C900009F4A140A6958FEF811D811D089597F954
:100CA0009F6780E870E060E008959FEF80EC089512
:100CB00000240A941616170618060906089500243B
:100CC0000A9412161306140605060895092E0394B5
:100CD000000C11F4882352F0BB0F40F4BF2B11F429
:100CE00060FF04C06F5F7F4F8F4F9F4F089557FD88
:100CF0009058440F551F59F05F3F71F04795880F8A
:100D000097FB991F61F09F3F79F087950895121620
:100D100013061406551FF2CF4695F1DF08C01616CC
:100D200017061806991FF1CF86957105610508947D
:100D30000895E894BB2766277727CB0197F9089594
:100D40000E942B0608F48FEF08950E94B8060C94B9
:100D500066060E94580638F00E945F0620F0952330
:100D600011F00C944F060C94550611240C949A061D
:100D70000E94770670F3959FC1F3950F50E0551FC1
:100D8000629FF001729FBB27F00DB11D639FAA27E0
:100D9000F00DB11DAA1F649F6627B00DA11D661F2F
:100DA000829F2227B00DA11D621F739FB00DA11D50
:100DB000621F839FA00D611D221F749F3327A00D0A
:100DC000611D231F849F600D211D822F762F6A2FA6
:100DD00011249F5750409AF0F1F088234AF0EE0F0B
:100DE000FF1FBB1F661F771F881F91505040A9F738
:100DF0009E3F510580F00C944F060C949A065F3F7D
:100E0000E4F3983ED4F3869577956795B795F79573
:100E1000E7959F5FC1F7FE2B880F911D96958795EB
:100E200097F90895EF920F931F93CF93DF93E80103
:100E300047FD02C034E001C034E1042E000C550B24
:100E400057FF03C0519541955109E32E022F242FDE
:100E5000AE010E943B07CE01DF91CF911F910F9110
:100E6000EF900895FB01DC018D9101908019011034
:100E7000D9F3990B0895A9E0B0E0E1E4F7E00C9410
:100E800073096A01122FB02E2BE3201720F0FF24E4
:100E9000F394F00E02C02CE3F22E0F2D27E0AE01EA
:100EA0004F5F5F4F0E949508BC014981842F897074
:100EB000813031F0E1FC06C0E0FE06C090E205C0E2
:100EC0009DE203C09BE201C090E05E2D507143FFA4
:100ED0003CC0911102C083E001C084E0811718F486
:100EE000212F281B01C020E051110BC0F601822FD9
:100EF00030E2882319F031938150FBCFC20ED11C10
:100F000020E0992329F0D6019C93F60131966F01D8
:100F1000C6010396E2FE0AC03EE4D6013C9341E4DA
:100F200011964C93119712963C9306C03EE6F6013B
:100F3000308341E641833283FC01322F40E2332388
:100F400009F442C041933150FACF42FF44C091119D
:100F500002C083E001C084E0811718F4212F281B10
:100F600001C020E051110BC0F601822F30E288232E
:100F700019F031938150FBCFC20ED11C20E0992390
:100F800029F0D6019C93F60131966F01C6010396B4
:100F9000E2FE0BC039E4D6013C933EE411963C934B
:100FA000119736E412963C9307C039E6F601308378
:100FB0003EE6318336E63283FC01322F40E23323B2
:100FC00019F041933150FBCFFC01E20FF11D10826B
:100FD0008EEF9FEFA6C021E030E0911102C020E02B
:100FE00030E0161617061CF4FB01319602C0E1E052
:100FF000F0E02E0F3F1FBB2021F0EB2DF0E03196EB
:1010000002C0E0E0F0E02E0F3F1FE12FF0E02E17CE
:101010003F071CF4121B212F01C020E08E2D887188
:1010200059F4F601822F30E2882319F03193815070
:10103000FBCFC20ED11C20E0992329F0D6019C934E
:10104000F60131966F0151110BC0F601822F90E32A
:10105000882319F091938150FBCFC20ED11C20E060
:101060000F2D060F9A81342F307144FF03C0913346
:1010700009F40150101624F4093018F008E001C0FA
:1010800001E0AB0177FF02C040E050E0FB01E41B50
:10109000F50BA1E0B0E0AC0FBD1FEA0FFB1F8EE225
:1010A000A82E4B01801A91080B2D10E01195019587
:1010B00011094F3FBFEF5B0721F4D601AC921196A7
:1010C0006D01641775072CF08416950614F4818160
:1010D00001C080E3415051093196D60111967D013E
:1010E0004017510724F0D6018C936701E2CF6417B3
:1010F000750739F4963320F4953319F4311101C092
:1011000081E3F6018083F701822F90E2882319F0B2
:1011100091938150FBCFF701E20FF11D108280E027
:1011200090E02996ECE00C948F09283008F027E035
:101130003327DA01990F311D87FD91600096610513
:10114000710539F432602E5F3D9330E32A95E1F763
:1011500008959F3F30F080387105610509F03C5FCC
:101160003C5F3D93913008F08068911DDF93CF93F1
:101170001F930F93FF92EF92192F987F9695E92F67
:1011800096959695E90FFF27EE53FF4F9927332742
:10119000EE24FF24A701E70105900894079428F4A2
:1011A000360FE71EF81E491F511D660F771F881F57
:1011B000991F0694A1F70590079428F4E70EF81EEE
:1011C000491F561FC11D770F881F991F661F069460
:1011D000A1F70590079428F4F80E491F561FC71F62
:1011E000D11D880F991F661F771F0694A1F70590E0
:1011F000079420F4490F561FC71FD81F990F661F69
:10120000771F881F0694A9F784911095177041F0F5
:10121000D695C79557954795F794E7941A95C1F7D2
:10122000E8E6F0E0689415901591359165919591F7
:1012300005907FE27395E118F10A430B560BC90B39
:10124000D009C0F7E10CF11E431F561FC91FD01D66
:101250007EF4703311F48A95E6CFE894015030F0B3
:10126000080F0AF40027021708F4202F2395022FF5
:101270007A3328F079E37D932A95E9F710C07D93BE
:101280002A9589F60694979567953795179517943B
:10129000E118F10A430B560BC90BD00998F02395BE
:1012A0007E9173957A3308F070E37C932013B8F73E
:1012B0007E9170617D9330F0839571E37D9370E34F
:1012C0002A95E1F71124EF90FF900F911F91CF9194
:1012D000DF91992787FD909508952F923F924F9225
:1012E0005F926F927F928F929F92AF92BF92CF92B6
:1012F000DF92EF92FF920F931F93CF93DF93CDB7BF
:10130000DEB7CA1BDB0B0FB6F894DEBF0FBECDBF36
:1013100009942A88398848885F846E847D848C8407
:101320009B84AA84B984C884DF80EE80FD800C8110
:101330001B81AA81B981CE0FD11D0FB6F894DEBFF3
:0C1340000FBECDBFED010895F894FFCF63
:10134C0020636D0A0053544F500A00474F0A005354
:10135C004C4F570A0053746F700A00536C6F770A26
:0C136C00005475726E0A00476F0A000002
:00000001FF
