:100000000C9434000C9451000C9451000C94510049
:100010000C9451000C9451000C9451000C949D02CE
:100020000C9451000C9451000C9451000C9451000C
:100030000C9451000C9451000C9451000C945100FC
:100040000C9451000C9451000C9479020C945100C2
:100050000C9451000C9451000C9451000C945100DC
:100060000C9451000C94510011241FBECFEFD8E026
:10007000DEBFCDBF11E0A0E0B1E0E0E1FEE002C0F4
:1000800005900D92A034B107D9F721E0A0E4B1E0CA
:1000900001C01D92AA3CB207E1F70E944E050C94E4
:1000A00006070C9400000E94C9040E9466030C9489
:1000B000BE034F925F926F927F928F929F92AF9208
:1000C000BF92CF92DF92EF92FF92CF93DF9300D057
:1000D00000D0CDB7DEB70E94FE02823021F086301C
:1000E00011F08111BBC040905A0150905B016090AB
:1000F0005C0170905D0120E030E048EC51E4C30108
:10010000B2010E94D405181614F080E04FC0809010
:100110005E0190905F01A0906001B090610120E0CD
:1001200030E048EC51E4C501B4010E94D405181632
:1001300064F7C0905201D0905301E0905401F090C8
:10014000550120E030E048EC51E4C701B6010E94BF
:10015000D4051816D4F68091560190915701A091BC
:100160005801B091590189839A83AB83BC8320E005
:1001700030E048EC51E4BC01CD010E94D4051816D2
:1001800024F620E030E048EC51E4C301B2010E94C3
:100190008B061816FCF420E030E040EF51E4C30178
:1001A000B2010E94D4051816ACF086E00F900F90B3
:1001B0000F900F90DF91CF91FF90EF90DF90CF9055
:1001C000BF90AF909F908F907F906F905F904F9077
:1001D0000C94010320E030E048EC51E4C501B40187
:1001E0000E948B06181654F420E030E040EF51E4F2
:1001F000C501B4010E94D4051816BCF620E030E019
:1002000048EC51E4C701B6010E948B0618165CF455
:1002100020E030E040EF51E4C701B6010E94D40570
:1002200018160CF0C2CF20E030E048EC51E46981B0
:100230007A818B819C810E948B0618166CF420E0D9
:1002400030E040EF51E469817A818B819C810E948A
:10025000D40518160CF0A9CF82E0A8CF0F900F900C
:100260000F900F90DF91CF91FF90EF90DF90CF90A4
:10027000BF90AF909F908F907F906F905F904F90C6
:100280000895CF93DF930E94F8020E94B803882359
:1002900009F448C00E94BB03EC0160E071E00E94D9
:1002A000FD06892B31F480E00E94FB0280E091E0A2
:1002B00033C066E071E0CE010E94FD06892B31F467
:1002C00082E00E94FB0286E091E026C06AE071E0D5
:1002D000CE010E94FD06892B31F486E00E94FB02CC
:1002E0008AE091E019C060E171E0CE010E94FD0654
:1002F000892B31F484E00E94FB0280E191E00CC084
:1003000066E171E0CE010E94FD06892B39F485E09B
:100310000E94FB0286E191E00E94A503DF91CF914C
:100320000C94B103DF91CF9108958F929F92AF9279
:10033000BF92CF92DF92EF92FF920E94F2028090E2
:100340005E0190905F01A0906001B0906101C0904B
:100350005201D0905301E0905401F0905501A70153
:100360009601C501B4010E9467052DEC3CEC4CECF4
:100370005DE30E948B0687FD02C084E00FC0A501EB
:100380009401C701B6010E9467052DEC3CEC4CECD2
:100390005DE30E948B0687FD0BC085E0FF90EF9028
:1003A000DF90CF90BF90AF909F908F900C94F5020C
:1003B000FF90EF90DF90CF90BF90AF909F908F9085
:1003C0000895E1E4F1E080819181A281B38180937D
:1003D0005A0190935B01A0935C01B0935D0184810D
:1003E0009581A681B78180935E0190935F01A09370
:1003F0006001B093610180859185A285B38580936A
:10040000520190935301A0935401B09355018485F8
:100410009585A685B7858093560190935701A09343
:100420005801B09359010E9459000E9441010C9457
:1004300095011F93CF93DF930E94F802C82F0E946B
:10044000FE02D82F0E94F202182FC1110AC080E0CC
:1004500090E00E94E70480E00E9401058DE191E0B8
:100460003DC0C63051F486E090E00E94E70482E08F
:100470000E94010583E291E031C0C43051F482E072
:1004800090E00E94E70484E00E94010589E291E087
:1004900025C0C53051F482E090E00E94E70485E079
:1004A0000E9401058FE291E019C0C230E1F4D11140
:1004B0000AC082E090E00E94E704812F0E940105BB
:1004C00086E391E00BC0D63071F282E090E00E94AA
:1004D000E70482E00E9401058CE391E0DF91CF9177
:1004E0001F910C94A503DF91CF911F9108950C9457
:1004F00019021F920F920FB60F9211242F933F9360
:100500004F935F936F937F938F939F93AF93BF931B
:10051000EF93FF930E947E03FF91EF91BF91AF9104
:100520009F918F917F916F915F914F913F912F910B
:100530000F900FBE0F901F9018951F920F920FB63D
:100540000F9211242F933F934F935F936F937F9359
:100550008F939F93AF93BF93CF93DF93EF93FF93CB
:10056000C0915101D0E0809151010E942604CC0F2E
:10057000DD1FCC0FDD1FCF5BDE4F688379838A835D
:100580009B838091510190E001968370992780931D
:100590005101FF91EF91DF91CF91BF91AF919F9169
:1005A0008F917F916F915F914F913F912F910F901C
:1005B0000FBE0F901F9018950E9453000E943D039C
:1005C0000E9442030E945303789482E00E94FB023F
:1005D00082E00E94FB0282E00C94F5020E94E1019D
:1005E0000C947702809162010895809362010895CE
:1005F000809163010895809363010895809164015F
:100600000895809364010895611104C02FEFFC01E7
:1006100020830895FC0110820895FC01808121E06F
:1006200030E001C0220F4A95EAF7611102C0282B81
:1006300002C02095282320830895FC01608308953B
:10064000FC01808121E030E001C0220F6A95EAF7C9
:10065000413011F4282B02C02095282320830895CF
:10066000FC0180810895FC01808190E002C0959595
:1006700087956A95E2F78170089514BC83E085BD83
:1006800016BC0895E0E8F0E0808182608083A1E8F4
:10069000B0E08C9188618C938C9183608C93808185
:1006A0008068808308951092B000E1EBF0E08081D3
:1006B00082608083A0E7B0E08C9182608C938CE9AB
:1006C0008093B30080818760808308951092C50075
:1006D0008FEC8093C400E0ECF0E080818260808346
:1006E000E2ECF0E0808186608083E1ECF0E08081E4
:1006F0008861808380818068808308958091C600AE
:10070000E0914001AE2FB0E0AB59BE4F8C93EF5F4C
:100710008A3051F4F0E0EB59FE4F10821092400104
:1007200081E08093C9010895E0934001089590917C
:10073000C00095FFFCCF8093C60008958091C00053
:1007400087FFFCCF8091C6000895CF93DF93EC0123
:100750008991882319F00E949703FACFDF91CF91F6
:1007600008951092C901089581E08093C901089508
:100770008091C901089585E691E0089542E060E026
:100780008AE290E00E940D0343E061E08AE290E09B
:100790000E940D0344E060E08AE290E00E940D03B5
:1007A00045E061E08AE290E00E940D0346E060E0EF
:1007B0008AE290E00E940D0347E061E08AE290E067
:1007C0000E940D0340E060E087E290E00E940D038C
:1007D00041E061E087E290E00C940D0381110CC0D0
:1007E0005A988AE08A95F1F700C05A9A85E38A956B
:1007F000F1F700005A980895813061F45C988AE01E
:100800008A95F1F700C05C9A85E38A95F1F70000BC
:100810005C980895823061F45E988AE08A95F1F7D9
:1008200000C05E9A85E38A95F1F700005E9808950E
:10083000833059F440988AE08A95F1F700C0409AD5
:1008400085E38A95F1F7000040980895CF93C82F6B
:100850000E94EE03C11120C081E492E4AFE0B0E059
:100860004B9905C00197A109B109D1F78CC060E08F
:1008700070E0CB014B9B78C06F5F7F4F8F4F9F4FD6
:10088000693823E172078105910509F46DC025E0FF
:100890002A95F1F70000EECFC13001F581E492E432
:1008A000AFE0B0E04D9905C00197A109B109D1F7BA
:1008B0006AC060E070E0CB014D9B56C06F5F7F4F18
:1008C0008F4F9F4F693823E172078105910509F425
:1008D0004BC025E02A95F1F70000EECFC230F9F4C5
:1008E00081E492E4AFE0B0E04F9905C00197A1091F
:1008F000B109D1F748C060E070E0CB014F9B34C034
:100900006F5F7F4F8F4F9F4F693823E172078105DB
:10091000910551F125E02A95F1F70000EFCFC330A2
:1009200021F060E070E0CB011FC081E492E4AFE011
:10093000B0E0319905C00197A109B109D1F723C0F1
:1009400060E070E0CB01319B0FC06F5F7F4F8F4F36
:100950009F4F693823E172078105910529F025E051
:100960002A95F1F70000EFCF0E94D90528E23EE773
:100970004CE05DE30E94900620E030E040E05FE361
:100980000E94900604C060E070E080E89FEBCF9189
:10099000089541E060E084E290E00E940D0342E0AF
:1009A00060E084E290E00E940D0343E060E084E2B6
:1009B00090E00E940D0344E060E084E290E00E9439
:1009C0000D0345E060E084E290E00C940D03BC016F
:1009D00087EE93E090938700809386006115710500
:1009E00029F4109289001092880008958091860061
:1009F000909187000E94530570938900609388004E
:100A000008958230B9F018F4882331F008958430C5
:100A100029F1853059F1089540E062E085E290E0E7
:100A20000E94200340E063E085E290E00E94200302
:100A300040E00DC041E062E085E290E00E942003CA
:100A400040E063E085E290E00E94200341E064E042
:100A500085E290E00E94200340E01BC040E062E09D
:100A600085E290E00E94200341E0EBCF41E062E0AC
:100A700085E290E00E94200340E063E085E290E0A0
:100A80000E94200340E064E085E290E00E942003A1
:100A900041E065E085E290E00C9420030E94DC02D6
:100AA0000E94EE02FDCFAA1BBB1B51E107C0AA1F8B
:100AB000BB1FA617B70710F0A61BB70B881F991FFF
:100AC0005A95A9F780959095BC01CD01089550588D
:100AD000BB27AA270E947F050C9451060E9443065B
:100AE00038F00E944A0620F039F49F3F19F426F4AA
:100AF0000C9440060EF4E095E7FB0C943A06E92FBF
:100B00000E94620658F3BA176207730784079507B5
:100B100020F079F4A6F50C9484060EF4E0950B2EE3
:100B2000BA2FA02D0B01B90190010C01CA01A0013F
:100B30001124FF27591B99F0593F50F4503E68F19A
:100B40001A16F040A22F232F342F4427585FF3CFDB
:100B5000469537952795A795F0405395C9F77EF4AC
:100B60001F16BA0B620B730B840BBAF09150A1F0F5
:100B7000FF0FBB1F661F771F881FC2F70EC0BA0F7B
:100B8000621F731F841F48F4879577956795B79503
:100B9000F7959E3F08F0B0CF9395880F08F09927FE
:100BA000EE0F9795879508950E94160608F481E048
:100BB0000895E89409C097FB3EF490958095709550
:100BC00061957F4F8F4F9F4F9923A9F0F92F96E999
:100BD000BB279395F695879577956795B795F1110E
:100BE000F8CFFAF4BB0F11F460FF1BC06F5F7F4FAB
:100BF0008F4F9F4F16C0882311F096E911C07723BD
:100C000021F09EE8872F762F05C0662371F096E8C5
:100C1000862F70E060E02AF09A95660F771F881F94
:100C2000DAF7880F9695879597F90895990F000838
:100C3000550FAA0BE0E8FEEF16161706E807F907AE
:100C4000C0F012161306E407F50798F0621B730B49
:100C5000840B950B39F40A2661F0232B242B252BCA
:100C600021F408950A2609F4A140A6958FEF811D6D
:100C7000811D089597F99F6780E870E060E008950E
:100C80009FEF80EC089500240A94161617061806A4
:100C90000906089500240A94121613061406050680
:100CA0000895092E0394000C11F4882352F0BB0F11
:100CB00040F4BF2B11F460FF04C06F5F7F4F8F4F74
:100CC0009F4F089557FD9058440F551F59F05F3FAF
:100CD00071F04795880F97FB991F61F09F3F79F05E
:100CE00087950895121613061406551FF2CF4695E0
:100CF000F1DF08C0161617061806991FF1CF869562
:100D00007105610508940895E894BB276627772745
:100D1000CB0197F908950E94160608F48FEF089505
:100D20000E94A3060C9451060E94430638F00E94CC
:100D30004A0620F0952311F00C943A060C944006D4
:100D400011240C9485060E94620670F3959FC1F3EE
:100D5000950F50E0551F629FF001729FBB27F00D69
:100D6000B11D639FAA27F00DB11DAA1F649F6627BE
:100D7000B00DA11D661F829F2227B00DA11D621F0D
:100D8000739FB00DA11D621F839FA00D611D221FC7
:100D9000749F3327A00D611D231F849F600D211DAB
:100DA000822F762F6A2F11249F5750409AF0F1F02E
:100DB00088234AF0EE0FFF1FBB1F661F771F881F97
:100DC00091505040A9F79E3F510580F00C943A068F
:100DD0000C9485065F3FE4F3983ED4F386957795AF
:100DE0006795B795F795E7959F5FC1F7FE2B880F3D
:100DF000911D9695879597F90895FB01DC018D91DA
:100E0000019080190110D9F3990B0895F894FFCF40
:100E100053544F500A00474F0A00534C4F570A0093
:100E20004C4546540A0052494748540A0053746FCF
:100E3000700A00536C6F770A004C6566740A0052A2
:100E4000696768740A005475726E0A00476F0A0079
:00000001FF
